:100000000C942A000C94C6160C94F3160C9420172A
:100010000C9447000C9465100C9447000C94470016
:100020000C9447000C9447000C9447000C94A510C6
:100030000C94E1120C94FA0A0C9447000C944700BB
:100040000C9447000C9447000C9447000C94470014
:100050000C94470011241FBECFE5D8E0DEBFCDBF12
:1000600013E0A0E6B0E0EAECF5E602C005900D92E0
:10007000A03DB107D9F716E0A0EDB3E001C01D9295
:10008000A036B107E1F70E94862F0C94E3320C945E
:100090000000EF92FF920F931F937B018C0120E0F1
:1000A00030E040E05FE40E94F50388238CF0C80153
:1000B000B70120E030E040E05FE40E94C1010E940F
:1000C00055049B01AC01205030404040504806C0D0
:1000D000C801B7010E9455049B01AC01B901CA01D6
:1000E0001F910F91FF90EF900895A0E0B0E0EBE733
:1000F000F0E00C94FB2FDC012B01FA019C91923073
:1001000008F439C1EB018881823008F433C194309E
:1001100069F4843009F02FC111969C91119789815F
:10012000981709F428C1A5E0B1E025C1843009F48D
:1001300021C18230A9F4923009F01DC19A01AD01AC
:1001400088E0EA010990AE01E90109929E0181501F
:10015000C1F7E201898111969C918923818308C1AD
:10016000923009F407C112962D903C901397EB0141
:100170008A819B811496AD90BD90CD90DC901797AD
:10018000EC80FD800E811F819101281B390BB90184
:1001900037FF04C066277727621B730B6032710537
:1001A0000CF061C0121613066CF537014801062EDB
:1001B00004C096948794779467940A94D2F721E0C8
:1001C00030E040E050E004C0220F331F441F551FB1
:1001D0006A95D2F721503040404050402E213F21B7
:1001E00040235123211531054105510521F021E01E
:1001F00030E040E050E079018A01E628F72808293C
:1002000019293CC0232BD1F1260E371E350146019A
:10021000062E04C096948794779467940A94D2F734
:1002200021E030E040E050E004C0220F331F441FC3
:10023000551F6A95D2F721503040404050402A2146
:100240003B214C215D21211531054105510521F04E
:1002500021E030E040E050E059016A01A628B728CB
:10026000C828D9280BC0821593052CF01C01AA249C
:10027000BB24650103C0EE24FF24870111969C91E5
:10028000D20111968C91981709F445C0992339F041
:10029000A80197012A193B094C095D0906C0A6016E
:1002A00095012E193F09400B510B57FD08C01182D3
:1002B0003382228224833583468357831DC081E0A5
:1002C00081833382228288279927DC01821B930B4A
:1002D000A40BB50B84839583A683B7830DC0220F2F
:1002E000331F441F551F24833583468357838281E0
:1002F000938101979383828324813581468157813D
:10030000DA01C9010197A109B1098F5F9F4FAF4F72
:10031000BF4328F30BC0918333822282EA0CFB1C7B
:100320000C1D1D1DE482F5820683178383E0808304
:10033000248135814681578157FF1AC0C901AA27F8
:1003400097FDA095BA2F81709070A070B0705695EF
:10035000479537952795822B932BA42BB52B848318
:100360009583A683B7838281938101969383828349
:10037000DF0101C0D201CD01CDB7DEB7E2E10C94BF
:100380001730A0E2B0E0E7ECF1E00C9407306983AD
:100390007A838B839C832D833E834F835887E9E048
:1003A000EE2EF12CEC0EFD1ECE010196B7010E943F
:1003B00046068E010F5E1F4FCE010596B8010E94C2
:1003C00046068A8991E089278A8BC701B801AE0168
:1003D000475E5F4F0E9475000E947105A096E6E09F
:1003E0000C942330A0E2B0E0E8EFF1E00C94073089
:1003F00069837A838B839C832D833E834F835887C5
:10040000F9E0EF2EF12CEC0EFD1ECE010196B701A6
:100410000E9446068E010F5E1F4FCE010596B80161
:100420000E944606C701B801AE01475E5F4F0E94B9
:1004300075000E947105A096E6E00C942330A0E2BE
:10044000B0E0E5E2F2E00C94FB2F69837A838B83C2
:100450009C832D833E834F835887CE010196BE0136
:10046000675F7F4F0E944606CE010596BE016F5E14
:100470007F4F0E9446069985923088F089898230A4
:10048000C8F0943019F4823051F404C0843029F457
:10049000923081F485E091E0C6C0923049F420E0CA
:1004A0009A858A89981321E02A87CE010996BBC0D4
:1004B000823049F420E09A858A89981321E02A8BBA
:1004C000CE014196B0C02D843E844F8458886D88FB
:1004D0007E888F88988CEE24FF248701AA24BB2471
:1004E000650140E050E060E070E0E0E0F0E0C10174
:1004F00081709070892BE9F0E60CF71C081D191D1E
:100500009A01AB012A0D3B1D4C1D5D1D80E090E062
:10051000A0E0B0E0E614F7040805190520F481E036
:1005200090E0A0E0B0E0BA01A901480F591F6A1F8E
:100530007B1FAA0CBB1CCC1CDD1C97FE08C081E0F5
:1005400090E0A0E0B0E0A82AB92ACA2ADB2A3196B6
:10055000E032F10549F0660C771C881C991C569412
:10056000479437942794C3CFFA85EA892B893C892D
:100570008B859C85280F391F2E5F3F4F17C0CA01FE
:1005800081709070892B61F016950795F794E79428
:1005900080E090E0A0E0B0E8E82AF92A0A2B1B2BC3
:1005A00076956795579547952F5F3F4F77FDE7CF36
:1005B0000CC0440F551F661F771F17FD4160EE0CDE
:1005C000FF1C001F111F21503040403090E05907A0
:1005D00090E0690790E4790760F32B8F3C8FDB0193
:1005E000CA018F779070A070B07080349105A1051A
:1005F000B10561F447FD0AC0E114F10401051105DC
:1006000029F0405C5F4F6F4F7F4F40781A8EFE1786
:1006100011F081E08A8F4D8F5E8F6F8F78A383E01A
:10062000898FCE0149960E947105A096E2E10C9453
:100630001730A8E1B0E0EFE1F3E00C9403306983F8
:100640007A838B839C832D833E834F835887B9E0C5
:10065000EB2EF12CEC0EFD1ECE010196B7010E948F
:1006600046068E010F5E1F4FCE010596B8010E940F
:1006700046062985223008F47EC03989323010F4CC
:10068000B8017CC08A859A8989278A87243011F02D
:10069000223031F4231709F06EC065E071E06EC0BE
:1006A000343039F41D861E861F86188A1C861B86E8
:1006B00004C0323021F484E08987B7015FC02B8504
:1006C0003C858B899C89281B390B3C872B87ED84C3
:1006D000FE840F851889AD88BE88CF88D88CEA142F
:1006E000FB040C051D0540F4EE0CFF1C001F111F40
:1006F000215030403C872B8720E030E040E050E044
:1007000080E090E0A0E0B0E460E070E0EA14FB0478
:100710000C051D0540F0282B392B4A2B5B2BEA18C2
:10072000FB080C091D09B695A79597958795EE0CC2
:10073000FF1C001F111F6F5F7F4F6F31710531F775
:10074000DA01C9018F779070A070B0708034910584
:10075000A105B10561F427FD0AC0E114F10401050A
:10076000110529F0205C3F4F4F4F5F4F20782D87B8
:100770003E874F87588BBE01675F7F4FCB010E943A
:1007800071056896EAE00C941F30A8E1B0E0EBEC4C
:10079000F3E00C94073069837A838B839C832D83E9
:1007A0003E834F83588789E0E82EF12CEC0EFD1E26
:1007B000CE010196B7010E9446068E010F5E1F4FC3
:1007C000CE010596B8010E9446068985823040F028
:1007D0008989823028F0C701B8010E94BE0601C095
:1007E0008FEF6896E6E00C942330A8E1B0E0EBEFE1
:1007F000F3E00C94073069837A838B839C832D8389
:100800003E834F83588789E0E82EF12CEC0EFD1EC5
:10081000CE010196B7010E9446068E010F5E1F4F62
:10082000CE010596B8010E9446068985823040F0C7
:100830008989823028F0C701B8010E94BE0601C034
:100840008FEF6896E6E00C942330A8E1B0E0EBE28D
:10085000F4E00C94073069837A838B839C832D8327
:100860003E834F83588789E0E82EF12CEC0EFD1E65
:10087000CE010196B7010E9446068E010F5E1F4F02
:10088000CE010596B8010E9446068985823040F067
:100890008989823028F0C701B8010E94BE0601C0D4
:1008A00081E06896E6E00C942330ACE0B0E0EBE544
:1008B000F4E00C940B3069837A838B839C83CE01A4
:1008C0000196BE016B5F7F4F0E9446068D8182308C
:1008D00061F1823050F1843021F48E81882351F10E
:1008E0002EC02F81388537FD20C06E812F31310514
:1008F0001CF06623F9F023C08EE190E0821B930B7D
:1009000029853A854B855C8504C056954795379572
:1009100027958A95D2F76623B1F05095409530958A
:1009200021953F4F4F4F5F4F0EC020E030E040E039
:1009300050E009C02FEF3FEF4FEF5FE704C020E02A
:1009400030E040E050E8B901CA012C96E2E00C9496
:100950002730A8E0B0E0EFEAF4E00C9403307B012C
:100960008C01611571058105910519F482E0898377
:1009700060C083E089838EE1C82ED12CDC82CB82DB
:10098000ED82FE820F831887C801B7010E942205FD
:10099000FC013197F7FF3BC0222733272E1B3F0B6B
:1009A00057016801022E04C0D694C794B794A79447
:1009B0000A94D2F740E050E060E070E081E090E01F
:1009C000A0E0B0E004C0880F991FAA1FBB1F2A95A2
:1009D000D2F70197A109B1098E219F21A023B1234C
:1009E0000097A105B10521F041E050E060E070E022
:1009F0004A295B296C297D294D835E836F83788723
:100A00008EE190E08E1B9F0B9C838B8312C03097EE
:100A100081F00E2E04C0EE0CFF1C001F111F0A9463
:100A2000D2F7ED82FE820F831887CE1ADF0ADC82AE
:100A3000CB821A82CE0101960E9471052896EAE0C7
:100A40000C941F30EF92FF920F931F937B018C0148
:100A500080E0E81680E0F80681E0080780E01807EB
:100A600088F48FEFE816F1040105110531F028F044
:100A700088E090E0A0E0B0E017C080E090E0A0E067
:100A8000B0E012C080E0E81680E0F80680E00807D9
:100A900081E0180728F088E190E0A0E0B0E004C011
:100AA00080E190E0A0E0B0E020E230E040E050E003
:100AB000281B390B4A0B5B0B04C016950795F7945E
:100AC000E7948A95D2F7F701E35FFE4F8081281BF8
:100AD000310941095109C9011F910F91FF90EF9010
:100AE0000895DF92EF92FF920F931F93FC01E48031
:100AF000F58006811781D1808081823048F480E0C2
:100B000090E0A0E1B0E0E82AF92A0A2B1B2BA5C04F
:100B1000843009F49FC0823021F4EE24FF24870141
:100B200005C0E114F1040105110519F4E0E0F0E05D
:100B300096C0628173819FEF623879070CF05BC0C9
:100B400022E83FEF261B370B2A3131052CF020E03D
:100B500030E040E050E02AC0B801A701022E04C0F6
:100B600076956795579547950A94D2F781E090E07E
:100B7000A0E0B0E004C0880F991FAA1FBB1F2A95F0
:100B8000D2F70197A109B1098E219F21A023B1239A
:100B90000097A105B10521F081E090E0A0E0B0E070
:100BA0009A01AB01282B392B4A2B5B2BDA01C901A7
:100BB0008F779070A070B07080349105A105B10559
:100BC00039F427FF09C0205C3F4F4F4F5F4F04C0EF
:100BD000215C3F4F4F4F5F4FE0E0F0E02030A0E05E
:100BE0003A07A0E04A07A0E45A0710F0E1E0F0E07D
:100BF00079018A0127C06038710564F5FB01E1586D
:100C0000FF4FD801C7018F779070A070B07080340B
:100C10009105A105B10539F4E7FE0DC080E490E02F
:100C2000A0E0B0E004C08FE390E0A0E0B0E0E80E08
:100C3000F91E0A1F1B1F17FF05C016950795F7948D
:100C4000E794319687E016950795F794E7948A958F
:100C5000D1F705C0EE24FF248701EFEFF0E06E2FFF
:100C6000679566276795902F9F77D794DD24D79453
:100C70008E2F8695492F462B582F5D29B701CA0123
:100C80001F910F91FF90EF90DF900895FC01DB0121
:100C9000408151812281622F6F7770E0221F2227CD
:100CA000221F9381892F880F822B282F30E0991FD4
:100CB0009927991F11969C93119721153105A9F534
:100CC000411551056105710511F482E037C082E8D4
:100CD0009FEF13969C938E9312979A01AB0167E056
:100CE000220F331F441F551F6A95D1F783E08C9361
:100CF0000DC0220F331F441F551F12968D919C91DA
:100D00001397019713969C938E931297203080E04F
:100D1000380780E0480780E4580758F314962D936D
:100D20003D934D935C93179708952F3F310579F4C8
:100D3000411551056105710519F484E08C930895FE
:100D400064FF03C081E08C9312C01C9210C02F5727
:100D5000304013963C932E93129783E08C9387E058
:100D6000440F551F661F771F8A95D1F7706414963C
:100D70004D935D936D937C93179708951F93DC01BA
:100D8000FB019C91923008F447C08081823008F4C6
:100D900043C0943051F411961C91843099F58181AF
:100DA000682F70E0611B71093FC0843021F09230E0
:100DB00031F48230B9F18181882389F12DC01196F7
:100DC0001C9111978230F1F081811817D9F4129695
:100DD0002D913C911397828193818217930794F010
:100DE00028173907BCF014968D919D910D90BC91F8
:100DF000A02D2481358146815781281739074A075C
:100E00005B0718F4112341F00AC082179307A40767
:100E1000B50740F4112319F061E070E005C06FEFF1
:100E20007FEF02C060E070E0CB011F910895DF9377
:100E3000CF9300D000D0CDB7DEB78A8319828A81E4
:100E40008F3008F027C28A81282F30E03C832B8323
:100E50008B819C818730910509F42AC12B813C81CB
:100E6000283031054CF58B819C818330910509F444
:100E7000A5C02B813C81243031058CF48B819C8171
:100E80008130910509F460C02B813C81223031050D
:100E90000CF077C08B819C810097C9F1F6C12B8142
:100EA0003C812530310509F4C3C08B819C8186309B
:100EB00091050CF0DDC09FC02B813C812B303105AA
:100EC00009F46DC18B819C818C3091056CF42B8170
:100ED0003C812930310509F428C18B819C818A30FD
:100EE00091050CF03FC104C12B813C812D303105AF
:100EF00009F48FC18B819C818D3091050CF46CC1FC
:100F00002B813C812E30310509F4A3C1BEC1AEE472
:100F1000B0E0EEE4F0E080818F7E8C93AEE4B0E050
:100F2000EEE4F0E08081877F8C93AFE4B0E0EFE403
:100F3000F0E080818D7F8C93AFE4B0E0EFE4F0E0EF
:100F400080818E7F8C93A1C1AEE4B0E0EEE4F0E04E
:100F500080818F7E8C93AEE4B0E0EEE4F0E080819F
:100F6000877F8C93AFE4B0E0EFE4F0E080818D7F89
:100F70008C93AFE4B0E0EFE4F0E0808181608C938B
:100F800084C1AEE4B0E0EEE4F0E080818F7E8C932B
:100F9000AEE4B0E0EEE4F0E08081877F8C93AFE4D4
:100FA000B0E0EFE4F0E0808182608C93AFE4B0E0E9
:100FB000EFE4F0E080818E7F8C9367C1AEE4B0E017
:100FC000EEE4F0E080818F7E8C93AEE4B0E0EEE45E
:100FD000F0E08081877F8C93AFE4B0E0EFE4F0E055
:100FE000808182608C93AFE4B0E0EFE4F0E0808138
:100FF00081608C934AC1AEE4B0E0EEE4F0E0808121
:101000008F7E8C93AEE4B0E0EEE4F0E08081886007
:101010008C93AFE4B0E0EFE4F0E080818D7F8C93BF
:10102000AFE4B0E0EFE4F0E080818E7F8C932DC1DF
:10103000AEE4B0E0EEE4F0E080818F7E8C93AEE42D
:10104000B0E0EEE4F0E0808188608C93AFE4B0E043
:10105000EFE4F0E080818D7F8C93AFE4B0E0EFE4CB
:10106000F0E0808181608C9385E08093F8030DC16E
:10107000AEE4B0E0EEE4F0E080818F7E8C93AEE4ED
:10108000B0E0EEE4F0E0808188608C93AFE4B0E003
:10109000EFE4F0E0808182608C93AFE4B0E0EFE4B5
:1010A000F0E080818E7F8C9386E08093F803EDC022
:1010B000AEE4B0E0EEE4F0E080818F7E8C93AEE4AD
:1010C000B0E0EEE4F0E0808188608C93AFE4B0E0C3
:1010D000EFE4F0E0808182608C93AFE4B0E0EFE475
:1010E000F0E0808181608C9387E08093F803CDC02D
:1010F000AEE4B0E0EEE4F0E0808180618C93AEE499
:10110000B0E0EEE4F0E08081877F8C93AFE4B0E064
:10111000EFE4F0E080818D7F8C93AFE4B0E0EFE40A
:10112000F0E080818E7F8C93B0C0AEE4B0E0EEE45E
:10113000F0E0808180618C93AEE4B0E0EEE4F0E01A
:101140008081877F8C93AFE4B0E0EFE4F0E08081B2
:101150008D7F8C93AFE4B0E0EFE4F0E080818160BC
:101160008C9393C0AEE4B0E0EEE4F0E08081806167
:101170008C93AEE4B0E0EEE4F0E08081877F8C9366
:10118000AFE4B0E0EFE4F0E0808182608C93AFE404
:10119000B0E0EFE4F0E080818E7F8C9376C0AEE427
:1011A000B0E0EEE4F0E0808180618C93AEE4B0E0EA
:1011B000EEE4F0E08081877F8C93AFE4B0E0EFE471
:1011C000F0E0808182608C93AFE4B0E0EFE4F0E087
:1011D000808181608C9359C0AEE4B0E0EEE4F0E031
:1011E000808180618C93AEE4B0E0EEE4F0E0808139
:1011F00088608C93AFE4B0E0EFE4F0E080818D7F15
:101200008C93AFE4B0E0EFE4F0E080818E7F8C93CC
:101210003CC0AEE4B0E0EEE4F0E0808180618C930D
:10122000AEE4B0E0EEE4F0E0808188608C93AFE45F
:10123000B0E0EFE4F0E0808182608C93AFE4B0E056
:10124000EFE4F0E080818E7F8C938DE08093F80353
:101250001CC0AEE4B0E0EEE4F0E0808180618C93ED
:10126000AEE4B0E0EEE4F0E0808188608C93AFE41F
:10127000B0E0EFE4F0E0808182608C93AFE4B0E016
:10128000EFE4F0E0808181608C93ECE4F0E0118287
:10129000108202C081E0898389810F900F900F90A6
:1012A0000F90CF91DF910895DF93CF9300D00F92ED
:1012B000CDB7DEB78B831A828B81883080F4EEE461
:1012C000F0E0808189838981887F898399818B81FE
:1012D000892B8983EEE4F0E08981808302C081E07C
:1012E0008A838A810F900F900F90CF91DF9108959C
:1012F000DF93CF9300D00F92CDB7DEB78B831A82E6
:101300008B818430E0F4EFE4F0E08081898389818F
:101310008F7389838B81882F90E000249695879521
:101320000794969587950794982F802D982F8981FB
:10133000892B8983EFE4F0E08981808302C081E01A
:101340008A838A810F900F900F90CF91DF9108953B
:10135000DF93CF9300D0CDB7DEB78A8319828A811D
:10136000882309F452C08A81853608F04EC08091E6
:10137000F803853089F4EAE4F0E08A81882F90E070
:10138000982F882724E630E0B9010E94B22FCB01C4
:101390000197918380833BC08091F803863091F45C
:1013A000EAE4F0E08A81882F90E0982F8827990F4F
:1013B00024E630E0B9010E94B22FCB01019791835E
:1013C000808325C08091F803873099F4EAE4F0E047
:1013D0008A81882F90E0982F8827990F990F24E60B
:1013E00030E0B9010E94B22FCB0101979183808335
:1013F0000EC08091F8038D3051F4EAE4F0E08A8168
:10140000882F90E09183808302C081E08983898165
:101410000F900F90CF91DF910895DF93CF9300D07D
:1014200000D0CDB7DEB78A8319828A81843008F074
:1014300061C08A81282F30E03C832B838B819C8183
:101440008130910521F12B813C81223031052CF432
:101450008B819C81009761F047C02B813C812230B9
:10146000310521F18B819C818330910571F13CC064
:10147000A5E4B0E0E5E4F0E08081877F8C93A5E40B
:10148000B0E0E5E4F0E080818F7B8C932FC0A5E491
:10149000B0E0E5E4F0E08081877F8C93A5E4B0E0E4
:1014A000E5E4F0E0808180648C9320C0A5E4B0E0A6
:1014B000E5E4F0E0808188608C93A5E4B0E0E5E4A9
:1014C000F0E080818F7B8C9311C0A5E4B0E0E5E46F
:1014D000F0E0808188608C93A5E4B0E0E5E4F0E082
:1014E000808180648C9302C081E08983E4E4F0E031
:1014F000108202C081E0898389810F900F900F9044
:101500000F90CF91DF910895DF93CF9300D00F928A
:10151000CDB7DEB78B831A828B81883080F4E5E407
:10152000F0E0808189838981887F898399818B819B
:10153000892B8983E5E4F0E08981808302C081E022
:101540008A838A810F900F900F90CF91DF91089539
:10155000DF93CF9300D00F92CDB7DEB78B831A8283
:101560008B818430C8F4E5E4F0E08081898389814F
:101570008F7C89838B81882F90E082959295907FD4
:101580009827807F9827982F8981892B8983E5E484
:10159000F0E08981808302C081E08A838A810F9094
:1015A0000F900F90CF91DF910895DF93CF9300D0EC
:1015B000CDB7DEB78A8319828A81882399F08A8120
:1015C000853680F4E3E4F0E08A81882F90E0982F5C
:1015D000882724E630E0B9010E94B22FCB01815068
:1015E000808302C081E0898389810F900F90CF9121
:1015F000DF9108951F920F920FB60F9211242F932F
:101600003F935F936F937F938F939F93AF93BF931A
:10161000EF93FF93DF93CF930F92CDB7DEB7ECE25A
:10162000F0E08081898389818A3019F089818D3049
:1016300071F48091D103882F90E0FC01E750FC4FBA
:10164000108281E08093D2031092D10315C0809163
:10165000D103882F90E0FC01E750FC4F8981808303
:101660008091D103882F90E0019620E430E0B90109
:101670000E94B22F8093D1030F90CF91DF91FF9101
:10168000EF91BF91AF919F918F917F916F915F91FA
:101690003F912F910F900FBE0F901F901895DF93E1
:1016A000CF93CDB7DEB728970FB6F894DEBF0FBE45
:1016B000CDBF6D837E838F8398871B828D819E81B2
:1016C000AF81B885803629E0920720E0A20720E0AC
:1016D000B20708F4B3C08D819E81AF81B88581398E
:1016E00020ED920723E0A20720E0B20708F0A6C091
:1016F000ABE2B0E0EBE2F0E080818D7F8C938D81F6
:101700009E81AF81B885880F991FAA1FBB1F880FC4
:10171000991FAA1FBB1F880F991FAA1FBB1F880FE5
:10172000991FAA1FBB1F9C01AD0180E092E1AAE7AF
:10173000B0E0BC01CD010E94C52FDA01C9010197BB
:101740009A838983E9E2F0E089818083E0E4F0E034
:1017500089819A81892F99278083AAE2B0E0EAE201
:10176000F0E0808188608C93AAE2B0E0EAE2F0E0E9
:10177000808180618C93A0E4B0E0E0E4F0E08081BF
:101780008F7C8C93A0E4B0E0E0E4F0E08081282F2F
:1017900080910D02882F90E082959295907F9827F6
:1017A000807F98278068822B8C93A0E4B0E0E0E4EF
:1017B000F0E08081897F8C9380910E0283608C831E
:1017C000A0E4B0E0E0E4F0E08081482F8C81282F95
:1017D00030E081E090E002C0880F991F2A95E2F77F
:1017E0008068842B8C9380910E0284608695869508
:1017F0008C83AAE2B0E0EAE2F0E080818B7F8C93F8
:10180000AAE2B0E0EAE2F0E08081282F8C81882F04
:1018100090E0880F991F880F991F822B8C93A0E46A
:10182000B0E0E0E4F0E08081877F8C93A0E4B0E05A
:10183000E0E4F0E080818F7B8C9302C081E08B83B9
:101840008B8128960FB6F894DEBF0FBECDBFCF9127
:10185000DF910895DF93CF9300D0CDB7DEB78A83B1
:101860001982EBE2F0E08081829586958770882F5F
:1018700090E0817090700097A1F3ECE2F0E08A8133
:101880008083EBE2F0E08081829586958695837077
:10189000882F90E081709070009799F389810F9064
:1018A0000F90CF91DF910895DF93CF9300D00F92E7
:1018B000CDB7DEB79B838A8319828A819B8100978B
:1018C000A9F0EBE2F0E080818823DCF7ECE2F0E0C5
:1018D0008081EA81FB818083ECE2F0E080818D30C1
:1018E00039F08091D0038823B9F302C081E0898365
:1018F00089810F900F900F90CF91DF910895DF9322
:10190000CF9300D0CDB7DEB79A8389830AC0E9812F
:10191000FA8180810E942A0C89819A8101969A839A
:101920008983E981FA818081882389F70F900F905C
:10193000CF91DF910895DF93CF9300D000D00F9225
:10194000CDB7DEB79C838B836D83198281E0809352
:10195000D0031CC0CE0102960E94540C8981282F0E
:1019600030E08B819C81FC01E20FF31F8A81808330
:101970008981282F30E08B819C81FC01E20FF31FCD
:1019800080818D3069F089818F5F89838981282FDB
:1019900030E08D81882F90E0019728173907D4F225
:1019A0008981282F30E08B819C81FC01E20FF31F9D
:1019B00010821092D0030F900F900F900F900F9005
:1019C000CF91DF910895DF93CF9300D000D0CDB7B2
:1019D000DEB78A8381E089838A81843008F060C021
:1019E000E4E4F0E010828A81282F30E03C832B83EE
:1019F0008B819C818130910521F12B813C812230AA
:101A000031052CF48B819C81009761F047C02B81BC
:101A10003C812230310521F18B819C8183309105FD
:101A200071F13CC0A5E4B0E0E5E4F0E08081877F9F
:101A30008C93A5E4B0E0E5E4F0E080818F7B8C93AB
:101A400030C0A5E4B0E0E5E4F0E08081877F8C93CE
:101A5000A5E4B0E0E5E4F0E0808180648C9321C0EF
:101A6000A5E4B0E0E5E4F0E0808188608C93A5E433
:101A7000B0E0E5E4F0E080818F7B8C9312C0A5E4B8
:101A8000B0E0E5E4F0E0808188608C93A5E4B0E00C
:101A9000E5E4F0E0808180648C9303C0198201C08A
:101AA000198289810F900F900F900F90CF91DF9145
:101AB0000895DF93CF9300D00F92CDB7DEB78B831D
:101AC00081E08A838B818830E0F48B818093E3030B
:101AD0008091E4038130B1F4E5E4F0E08081898312
:101AE0008981887F89839091E3038981892B898308
:101AF000A5E4B0E0E5E4F0E090818981892B8C9346
:101B000001C01A828A810F900F900F90CF91DF91C0
:101B10000895DF93CF930F92CDB7DEB781E089832D
:101B2000A8E5B0E0E8E5F0E0808180648C93A9E569
:101B3000B0E0E9E5F0E0808180648C9389810F90CA
:101B4000CF91DF910895DF93CF930F92CDB7DEB79A
:101B500081E08983A9E5B0E0E9E5F0E080818F7B51
:101B60008C9389810F90CF91DF910895DF93CF936C
:101B70000F92CDB7DEB781E08983A5E4B0E0E5E45C
:101B8000F0E090818091E303892B8C9381E0809336
:101B9000E40389810F90CF91DF910895DF93CF9374
:101BA0000F92CDB7DEB781E08983A5E4B0E0E5E42C
:101BB000F0E08081887F8C931092E40389810F90FC
:101BC000CF91DF910895DF93CF93CDB7DEB72D97F7
:101BD0000FB6F894DEBF0FBECDBF6A877B878C87B8
:101BE0009D8781E089878A859B85AC85BD858838FE
:101BF00023E1920720E0A20720E0B20708F0A2C08C
:101C00008091E303882F90E0880F991FFC01E05F2B
:101C1000FD4F80819181CC01A0E0B0E0BC01CD01FD
:101C20000E94A904DC01CB01BC01CD0120E030E021
:101C30004AEF55E40E941903DC01CB0189839A83A2
:101C4000AB83BC836A857B858C859D850E94A904B6
:101C5000DC01CB01BC01CD0129813A814B815C8142
:101C60000E941903DC01CB01BC01CD010E94490097
:101C7000DC01CB018D839E83AF83B8878D819E81EC
:101C8000AF81B885803021E0920720E0A20720E0F4
:101C9000B20721F481E080930F0255C08D819E81AF
:101CA000AF81B8858F3F9105A105B10509F0A8F472
:101CB0002D813E8180E091E0821B930B9093D403B1
:101CC0008093D303E4E4F0E08091D3039091D403B4
:101CD000808381E080930F0236C08D819E81AF8129
:101CE000B885813021E0920720E0A20720E0B2070A
:101CF00050F18D819E81AF81B885892F9A2FAB2FAE
:101D0000BB2780930F028D819E819C01307080E003
:101D100091E0821B930B9093D4038093D303E4E46C
:101D2000F0E08091D3039091D40380838091D3031A
:101D30009091D403009739F080910F028F5F8093C8
:101D40000F0201C0198689852D960FB6F894DEBF63
:101D50000FBECDBFCF91DF910895DF93CF930F9248
:101D6000CDB7DEB7198217C0E8E5F0E08081829533
:101D7000869586958370882F90E08170907000978B
:101D800099F3A8E5B0E0E8E5F0E0808180648C9309
:101D900089818F5F898390910F028981891721F74B
:101DA0000F90CF91DF910895DF93CF9300D0CDB7FF
:101DB000DEB79A83898389819A81009731F089817E
:101DC0009A819093D8038093D7030F900F90CF916F
:101DD000DF910895DF93CF93CDB7DEB7E4E4F0E071
:101DE0001082CF91DF910895DF93CF93CDB7DEB707
:101DF000E4E4F0E08081CF91DF910895DF93CF9309
:101E0000CDB7DEB7E2E5F0E01082A3E5B0E0E3E5B0
:101E1000F0E08081877F8C93A3E5B0E0E3E5F0E01C
:101E200080818F7B8C93CF91DF910895DF93CF9347
:101E300000D00F92CDB7DEB78B8381E08A838B8190
:101E40008830E0F48B818093E5038091D903813061
:101E5000B1F4E3E5F0E0808189838981887F89831B
:101E60009091E5038981892B8983A3E5B0E0E3E5BF
:101E7000F0E090818981892B8C9301C01A828A813C
:101E80000F900F900F90CF91DF910895DF93CF9334
:101E9000CDB7DEB7A8E5B0E0E8E5F0E0808181608D
:101EA0008C93A9E5B0E0E9E5F0E0808181608C9356
:101EB000CF91DF910895DF93CF93CDB7DEB7A3E540
:101EC000B0E0E3E5F0E090818091E503892B8C930D
:101ED00081E08093D903CF91DF910895DF93CF9371
:101EE000CDB7DEB7A3E5B0E0E3E5F0E08081887F21
:101EF0008C93E2E5F0E08091D5039091D603808346
:101F00001092D903CF91DF910895DF93CF93CDB78E
:101F1000DEB72D970FB6F894DEBF0FBECDBF6A8730
:101F20007B878C879D8781E089878A859B85AC85A7
:101F3000BD85883823E1920720E0A20720E0B207A0
:101F400008F0A2C08091E503882F90E0880F991FC8
:101F5000FC01E05EFD4F80819181CC01A0E0B0E00A
:101F6000BC01CD010E94A904DC01CB01BC01CD0163
:101F700020E030E04AEF55E40E941903DC01CB0178
:101F800089839A83AB83BC836A857B858C859D8599
:101F90000E94A904DC01CB01BC01CD0129813A8159
:101FA0004B815C810E941903DC01CB01BC01CD0196
:101FB0000E944900DC01CB018D839E83AF83B887EB
:101FC0008D819E81AF81B885803021E0920720E02D
:101FD000A20720E0B20721F481E08093DA0355C024
:101FE0008D819E81AF81B8858F3F9105A105B10597
:101FF00009F0A8F42D813E8180E091E0821B930BD3
:102000009093D6038093D503E2E5F0E08091D50369
:102010009091D603808381E08093DA0336C08D816E
:102020009E81AF81B885813021E0920720E0A20730
:1020300020E0B20750F18D819E81AF81B885892F54
:102040009A2FAB2FBB278093DA038D819E819C0151
:10205000307080E091E0821B930B9093D6038093C5
:10206000D503E2E5F0E08091D5039091D60380831B
:102070008091D5039091D603009739F08091DA03CF
:102080008F5F8093DA0301C0198689852D960FB67C
:10209000F894DEBF0FBECDBFCF91DF910895DF93DF
:1020A000CF9300D0CDB7DEB79A83898389819A8197
:1020B000009731F089819A819093DC038093DB0350
:1020C0000F900F90CF91DF9108951F920F920FB64E
:1020D0000F9211242F933F934F935F936F937F93AE
:1020E0008F939F93AF93BF93EF93FF93DF93CF9320
:1020F000CDB7DEB78091E1038F5F8093E1039091CC
:10210000E10380910F02981769F48091D7039091B1
:10211000D803009739F01092E103E091D703F091D2
:10212000D8030995CF91DF91FF91EF91BF91AF91C6
:102130009F918F917F916F915F914F913F912F91DF
:102140000F900FBE0F901F9018951F920F920FB611
:102150000F9211248F939F93AF93BF93DF93CF93ED
:10216000CDB7DEB78091E2038F5F8093E203909159
:10217000E2038091DA039817A9F41092E2038091A8
:10218000DD039091DE03A091DF03B091E00301969F
:10219000A11DB11D8093DD039093DE03A093DF03A7
:1021A000B093E003CF91DF91BF91AF919F918F9159
:1021B0000F900FBE0F901F901895DF93CF9300D014
:1021C00000D0CDB7DEB78A8381E089838A818830E9
:1021D00008F013C1ADE2B0E0EDE2F0E08081806193
:1021E0008C938A81282F30E03C832B838B819C81C8
:1021F0008330910509F470C02B813C812430310576
:1022000084F48B819C8181309105D1F12B813C81BB
:10221000223031050CF04AC08B819C810097D1F0AF
:10222000C8C02B813C812530310509F481C08B81E8
:102230009C81853091050CF465C02B813C81263052
:10224000310509F48BC08B819C818730910509F49D
:102250009BC0AFC0AEE2B0E0EEE2F0E080818E7FE6
:102260008C93ADE2B0E0EDE2F0E080818D7F8C9365
:10227000ADE2B0E0EDE2F0E080818E7F8C9399C01A
:10228000AEE2B0E0EEE2F0E080818E7F8C93ADE2D2
:10229000B0E0EDE2F0E080818D7F8C93ADE2B0E0C4
:1022A000EDE2F0E0808181608C9383C0AEE2B0E02B
:1022B000EEE2F0E080818E7F8C93ADE2B0E0EDE263
:1022C000F0E0808182608C93ADE2B0E0EDE2F0E07E
:1022D00080818E7F8C936DC0AEE2B0E0EEE2F0E0E4
:1022E00080818E7F8C93ADE2B0E0EDE2F0E0808102
:1022F00082608C93ADE2B0E0EDE2F0E0808181603D
:102300008C9357C0AEE2B0E0EEE2F0E080818160F5
:102310008C93ADE2B0E0EDE2F0E080818D7F8C93B4
:10232000ADE2B0E0EDE2F0E080818E7F8C9341C0C1
:10233000AEE2B0E0EEE2F0E0808181608C93ADE24D
:10234000B0E0EDE2F0E080818D7F8C93ADE2B0E013
:10235000EDE2F0E0808181608C932BC0AEE2B0E0D2
:10236000EEE2F0E0808181608C93ADE2B0E0EDE2DE
:10237000F0E0808182608C93ADE2B0E0EDE2F0E0CD
:1023800080818E7F8C9315C0AEE2B0E0EEE2F0E08B
:10239000808181608C93ADE2B0E0EDE2F0E080817D
:1023A00082608C93ADE2B0E0EDE2F0E0808181608C
:1023B0008C93ADE2B0E0EDE2F0E0808180628C933E
:1023C000ADE2B0E0EDE2F0E08081877F8C93ADE29A
:1023D000B0E0EDE2F0E0808184608C93ADE2B0E0AB
:1023E000EDE2F0E080818F778C93ADE2B0E0EDE23A
:1023F000F0E0808180648C9301C0198289810F9004
:102400000F900F900F90CF91DF910895DF93CF93AE
:102410000F92CDB7DEB781E08983EFE2F0E08FEF76
:102420008083ADE2B0E0EDE2F0E080818F7E8C93BE
:10243000ADE2B0E0EDE2F0E0808180688C93ADE247
:10244000B0E0EDE2F0E0808180628C93ADE2B0E03C
:10245000EDE2F0E08081877F8C93ADE2B0E0EDE2C9
:10246000F0E0808184608C93ADE2B0E0EDE2F0E0DA
:10247000808180648C9389810F90CF91DF91089542
:10248000DF93CF9300D0CDB7DEB78A83EFE2F0E0E1
:102490008A818083EEE2F0E080818823DCF7EFE23E
:1024A000F0E0808189830F900F90CF91DF910895A4
:1024B000DF93CF9300D00F92CDB7DEB79B838A8393
:1024C00081E089838A819B81009761F0EEE2F0E0F0
:1024D00080818823DCF7EFE2F0E08081EA81FB81F4
:1024E000808301C0198289810F900F900F90CF9146
:1024F000DF910895DF93CF93CDB7DEB729970FB65D
:10250000F894DEBF0FBECDBF98878F83698781E0C7
:102510008D8319821A821B821C828F819885009775
:1025200009F444C08985882309F440C024C0EEE240
:10253000F0E080818823FCF4CE0106960E945812B8
:10254000982F8D8189238D838E81882331F1298174
:102550003A818F819885FC01E20FF31F8E81808381
:1025600089819A81AB81BC810196A11DB11D8983AE
:102570009A83AB83BC838985882F90E001979C0167
:10258000442737FD4095542F89819A81AB81BC81C6
:1025900082179307A407B50750F289819A812F818A
:1025A0003885F901E80FF91F108201C01D828D8165
:1025B00029960FB6F894DEBF0FBECDBFCF91DF9145
:1025C00008951F920F920FB60F9211242F933F93ED
:1025D0004F935F936F937F938F939F93EF93FF93AB
:1025E000DF93CF930F92CDB7DEB7EFE2F0E08081BB
:1025F00089838981882321F08091E703813340F129
:102600008091E803482F50E08091E703282F30E0C5
:1026100082E390E0BC01469FC001479F900D569F0A
:10262000900D1124820F931FFC01E75CFB4F108279
:1026300081E08093E6031092E7038091E8038F5FC7
:102640008093E8038091E9038F5F8093E9031EC0C4
:102650008091E803482F50E08091E703282F30E075
:1026600082E390E0BC01469FC001479F900D569FBA
:10267000900D1124820F931FFC01E75CFB4F8981B1
:1026800080838091E7038F5F8093E7030F90CF9162
:10269000DF91FF91EF919F918F917F916F915F916A
:1026A0004F913F912F910F900FBE0F901F90189553
:1026B000DF93CF93CDB7DEB7A1E2B0E0E1E2F0E087
:1026C00080818E7F8C93A1E2B0E0E1E2F0E0808136
:1026D0008D7F8C93E0E2F0E082E08083E2E2F0E044
:1026E00080EA8083A6E5B0E0E6E5F0E080818460E2
:1026F0008C93CF91DF910895DF93CF93CDB7DEB761
:10270000E2E2F0E080E88083A6E5B0E0E6E5F0E014
:10271000808184608C93CF91DF910895DF93CF9374
:10272000CDB7DEB7E6E5F0E084EA8083E6E5F0E0E9
:1027300080818823DCF7E1E2F0E08081882F90E05F
:10274000887F907088309105B1F7CF91DF9108951F
:10275000DF93CF93CDB7DEB7E6E5F0E084EA808380
:10276000E6E5F0E080818823DCF7E1E2F0E08081BB
:10277000882F90E0887F907080319105B1F7CF91DC
:10278000DF910895DF93CF930F92CDB7DEB78983A2
:10279000E3E2F0E08981880F8083A3E2B0E0E3E226
:1027A000F0E080818E7F8C93E6E5F0E084E8808322
:1027B000E6E5F0E080818823DCF7E1E2F0E080816B
:1027C000882F90E0887F907088319105B1F70F9045
:1027D000CF91DF910895DF93CF930F92CDB7DEB7FE
:1027E0008983E3E2F0E08981880F8083A3E2B0E08F
:1027F000E3E2F0E0808181608C93E6E5F0E084E83C
:102800008083E6E5F0E080818823DCF70F90CF91AC
:10281000DF910895DF93CF930F92CDB7DEB7898311
:10282000E3E2F0E089818083A6E5B0E0E6E5F0E050
:10283000808180688C93A6E5B0E0E6E5F0E08081D9
:1028400084608C93E6E5F0E080818823DCF7E1E2A8
:10285000F0E08081882F90E0887F90708832910529
:10286000B1F70F90CF91DF910895DF93CF93CDB75C
:10287000DEB7E6E5F0E084E88083E6E5F0E080811D
:102880008823DCF7E3E2F0E08081CF91DF910895C7
:10289000DF93CF93CDB7DEB7A6E5B0E0E6E5F0E095
:1028A000808180688C93A6E5B0E0E6E5F0E0808169
:1028B00080618C93A6E5B0E0E6E5F0E0808184607D
:1028C0008C93E6E5F0E08081882F90E08071907035
:1028D0000097B9F7CF91DF910895DF93CF93CDB7EC
:1028E000DEB7A6E5B0E0E6E5F0E0808180688C9395
:1028F000A6E5B0E0E6E5F0E0808180648C93A6E593
:10290000B0E0E6E5F0E0808184608C93E6E5F0E0FD
:1029100080818823DCF7E1E2F0E08081882F90E07D
:10292000887F907080369105B1F7CF91DF9108953F
:10293000DF93CF93CDB7DEB7A6E5B0E0E6E5F0E0F4
:10294000808180688C93A6E5B0E0E6E5F0E08081C8
:1029500080648C93A6E5B0E0E6E5F0E080818460D9
:102960008C93E6E5F0E080818823DCF7E1E2F0E09B
:102970008081882F90E0887F9070883A9105B1F728
:10298000CF91DF910895DF93CF93CDB7DEB7A6E562
:10299000B0E0E6E5F0E0808180688C93A6E5B0E0E9
:1029A000E6E5F0E0808180648C93A6E5B0E0E6E5A2
:1029B000F0E0808184608C93E6E5F0E080818823FC
:1029C000DCF7E1E2F0E08081882F90E0887F907072
:1029D00080389105B1F7E3E2F0E08081CF91DF919B
:1029E0000895DF93CF930F92CDB7DEB78983E3E2EB
:1029F000F0E089818083A6E5B0E0E6E5F0E0808143
:102A000080688C93A6E5B0E0E6E5F0E08081806424
:102A10008C93A6E5B0E0E6E5F0E0808184608C93DD
:102A2000E6E5F0E080818823DCF7E1E2F0E08081F8
:102A3000882F90E0887F9070803C9105B1F70F90CF
:102A4000CF91DF910895DF93CF93CDB7DEB729976C
:102A50000FB6F894DEBF0FBECDBF8A836B8381E0D3
:102A600089838A81833008F015C18B81843008F016
:102A700011C18A81882309F06BC08B81282F30E037
:102A800039872887888599858130910521F12885A6
:102A90003985223031052CF488859985009761F0BD
:102AA00047C0288539852230310521F188859985EF
:102AB0008330910571F13CC0A5E5B0E0E5E5F0E0BB
:102AC00080818E7F8C93A5E5B0E0E5E5F0E0808124
:102AD0008D7F8C932EC0A5E5B0E0E5E5F0E0808128
:102AE00081608C93A5E5B0E0E5E5F0E080818D7F25
:102AF0008C931FC0A5E5B0E0E5E5F0E080818E7F16
:102B00008C93A5E5B0E0E5E5F0E0808182608C93F0
:102B100010C0A5E5B0E0E5E5F0E0808181608C9330
:102B2000A5E5B0E0E5E5F0E0808182608C9301C02E
:102B30001982ABE5B0E0EBE5F0E0808180648C9336
:102B4000AAE5B0E0EAE5F0E0808180648C93A3C060
:102B50008A81813009F06BC08B81282F30E03F8360
:102B60002E838E819F818130910521F12E813F81BD
:102B7000223031052CF48E819F81009761F047C08F
:102B80002E813F812230310521F18E819F8183305A
:102B9000910571F13CC0A5E5B0E0E5E5F0E080818C
:102BA0008B7F8C93A5E5B0E0E5E5F0E08081877F41
:102BB0008C932EC0A5E5B0E0E5E5F0E0808184606F
:102BC0008C93A5E5B0E0E5E5F0E08081877F8C930C
:102BD0001FC0A5E5B0E0E5E5F0E080818B7F8C9338
:102BE000A5E5B0E0E5E5F0E0808188608C9310C059
:102BF000A5E5B0E0E5E5F0E0808184608C93A5E593
:102C0000B0E0E5E5F0E0808188608C9301C0198236
:102C1000ABE5B0E0EBE5F0E0808180688C93AAE55D
:102C2000B0E0EAE5F0E0808180688C9334C08A816E
:102C3000823089F58B81282F30E03D832C838C8175
:102C40009D818230910531F02C813D812330310509
:102C500049F010C0A4E5B0E0E4E5F0E080818F7BAE
:102C60008C9309C0A4E5B0E0E4E5F0E080818064E5
:102C70008C9301C01982ABE5B0E0EBE5F0E0808118
:102C800080628C93AAE5B0E0EAE5F0E080818062A2
:102C90008C9301C01982898129960FB6F894DEBF02
:102CA0000FBECDBFCF91DF910895DF93CF9300D0BA
:102CB000CDB7DEB79A83898389819A819093EB039C
:102CC0008093EA030F900F90CF91DF910895DF93E7
:102CD000CF9300D0CDB7DEB79A83898389819A815B
:102CE0009093ED038093EC030F900F90CF91DF91C1
:102CF0000895DF93CF9300D0CDB7DEB79A83898351
:102D000089819A81009731F089819A819093EF03AC
:102D10008093EE030F900F90CF91DF910895DF9392
:102D2000CF93CDB7DEB7EAE5F0E080818295869556
:102D300086958370882F90E081709070009799F34A
:102D4000CF91DF910895DF93CF93CDB7DEB7ABE599
:102D5000B0E0EBE5F0E080818F7B8C93CF91DF9149
:102D60000895DF93CF93CDB7DEB7AAE5B0E0EAE5EB
:102D7000F0E0808180688C93ABE5B0E0EBE5F0E0BB
:102D8000808180648C93CF91DF9108951F920F9280
:102D90000FB60F9211242F933F934F935F936F932E
:102DA0007F938F939F93AF93BF93EF93FF93DF93A3
:102DB000CF93CDB7DEB7E091EA03F091EB0309952D
:102DC000CF91DF91FF91EF91BF91AF919F918F9143
:102DD0007F916F915F914F913F912F910F900FBE17
:102DE0000F901F9018951F920F920FB60F921124FB
:102DF0002F933F934F935F936F937F938F939F9303
:102E0000AF93BF93EF93FF93DF93CF93CDB7DEB72D
:102E1000E091EC03F091ED030995CF91DF91FF91E3
:102E2000EF91BF91AF919F918F917F916F915F9142
:102E30004F913F912F910F900FBE0F901F901895BB
:102E40001F920F920FB60F9211242F933F934F931F
:102E50005F936F937F938F939F93AF93BF93EF9302
:102E6000FF93DF93CF93CDB7DEB7E091EE03F09100
:102E7000EF030995CF91DF91FF91EF91BF91AF9152
:102E80009F918F917F916F915F914F913F912F9182
:102E90000F900FBE0F901F901895DF93CF9300D027
:102EA0000F92CDB7DEB78A836B8319828A81843013
:102EB00020F58B81823008F58B81882369F48A8123
:102EC000882F90E0880F991FFC01EC5CFD4F01906A
:102ED000F081E02D108213C08B81813081F48A81D2
:102EE000882F90E0880F991FFC01EC5CFD4F01904A
:102EF000F081E02D8FEF808302C08FEF898389817D
:102F00000F900F900F90CF91DF910895DF93CF93A3
:102F100000D00F92CDB7DEB78A836B8319828A8186
:102F2000843070F48A81882F90E0880F991FFC010B
:102F3000E45DFD4F0190F081E02D8B81808302C024
:102F40008FEF898389810F900F900F90CF91DF9140
:102F50000895DF93CF9300D000D0CDB7DEB78A833A
:102F60007C836B8319828A81843080F48A81882FE4
:102F700090E0880F991FFC01E45CFD4F0190F08107
:102F8000E02D8081EB81FC81808302C08FEF8983FB
:102F900089810F900F900F900F90CF91DF9108953E
:102FA000DF93CF9300D000D00F92CDB7DEB78C83E4
:102FB0006D831B828C81803208F05DC08D818230F0
:102FC00008F059C08C818695869586958A838C8178
:102FD000877089838D81882331F58A81882F90E0DD
:102FE000880F991FFC01EC5CFD4FA081B1818A81A3
:102FF000882F90E0880F991FFC01EC5CFD4F019039
:10300000F081E02D8081482F8981282F30E081E0F8
:1030100090E0022E02C0880F991F0A94E2F7809573
:1030200084238C932AC08D81813039F58A81882F41
:1030300090E0880F991FFC01EC5CFD4FA081B181ED
:103040008A81882F90E0880F991FFC01EC5CFD4F6E
:103050000190F081E02D8081482F8981282F30E078
:1030600081E090E0022E02C0880F991F0A94E2F7D7
:10307000842B8C9302C08FEF8B838B810F900F90EA
:103080000F900F900F90CF91DF910895DF93CF9322
:1030900000D000D00F92CDB7DEB78C836D831B823A
:1030A0008C81803208F05DC08D81823008F059C07B
:1030B0008C818695869586958A838C818770898395
:1030C0008D81882331F58A81882F90E0880F991FA0
:1030D000FC01E45DFD4FA081B1818A81882F90E0E1
:1030E000880F991FFC01E45DFD4F0190F081E02DF8
:1030F0008081482F8981282F30E081E090E0022EE6
:1031000002C0880F991F0A94E2F7809584238C935C
:103110002AC08D81813039F58A81882F90E0880F0F
:10312000991FFC01E45DFD4FA081B1818A81882F48
:1031300090E0880F991FFC01E45DFD4F0190F08144
:10314000E02D8081482F8981282F30E081E090E0B8
:10315000022E02C0880F991F0A94E2F7842B8C93E9
:1031600002C08FEF8B838B810F900F900F900F9089
:103170000F90CF91DF910895DF93CF9300D000D0CF
:10318000CDB7DEB78C831B828C81803268F58C8151
:103190008695869586958A838C81877089838A81B6
:1031A000882F90E0880F991FFC01E45DFD4FA081FE
:1031B000B1818A81882F90E0880F991FFC01E45D1E
:1031C000FD4F0190F081E02D8081482F8981282FCB
:1031D00030E081E090E0022E02C0880F991F0A942F
:1031E000E2F784278C9302C08FEF8B838B810F9043
:1031F0000F900F900F90CF91DF910895DF93CF93B1
:1032000000D000D000D0CDB7DEB78C837E836D8335
:103210001B828C81803228F58C81869586958695D7
:103220008A838C81877089838A81882F90E0880FB8
:10323000991FFC01E45CFD4F0190F081E02D80813D
:10324000282F30E08981882F90E0A90102C0559590
:1032500047958A95E2F7CA018170ED81FE818083EE
:1032600002C08FEF8B838B8126960FB6F894DEBF5A
:103270000FBECDBFCF91DF910895DF93CF9300D0E4
:10328000CDB7DEB78A8381E089838A81803228F4D2
:103290008A8161E00E94D01701C0198289810F9054
:1032A0000F90CF91DF910895DF93CF9300D0CDB7EA
:1032B000DEB78A8381E089838A81803228F48A811B
:1032C00061E00E94461801C0198289810F900F9019
:1032D000CF91DF910895DF93CF9300D0CDB7DEB7C4
:1032E0008A8381E089838A81803228F48A8160E040
:1032F0000E94461801C0198289810F900F90CF91CA
:10330000DF910895DF93CF9300D0CDB7DEB78A83E6
:1033100081E089838A81803220F48A810E94BC18EE
:1033200001C0198289810F900F90CF91DF9108958C
:10333000DF93CF9300D0CDB7DEB71A820DC08A815C
:10334000882F90E0FC01E35BFD4F808161E00E94EB
:10335000D0178A818F5F8A838A81833080F31982B4
:103360000DC08981882F90E0FC01E05BFD4F8081DA
:1033700060E00E94D01789818F5F898389818330C3
:1033800080F31A820DC08A81882F90E0FC01E35BF4
:10339000FD4F808161E00E9446188A818F5F8A8399
:1033A0008A81833080F319820DC08981882F90E053
:1033B000FC01E05BFD4F808161E00E94461889813D
:1033C0008F5F89838981833080F30F900F90CF9135
:1033D000DF910895DF93CF93CDB7DEB7E8970FB6AF
:1033E000F894DEBF0FBECDBF1FAA1EAAEEC18EA9E4
:1033F000882F90E0FC01E35BFD4F808160E00E943C
:10340000461880E090E0A0E0B0E489AB9AABABABAB
:10341000BCAB69A97AA98BA99CA92BEA3AEA4AE232
:1034200050E40E941F02DC01CB018DA79EA7AFA72D
:10343000B8AB6DA57EA58FA598A920E030E040E847
:103440005FE30E94250488231CF481E08CA791C0CF
:103450006DA57EA58FA598A920E030E04FE753E445
:103460000E94C50318160CF07BC069A97AA98BA924
:103470009CA920E030E04AE754E40E941903DC01F3
:10348000CB0188A799A7AAA7BBA768A579A58AA5F4
:103490009BA520E030E04AEF54E40E941F02DC01CB
:1034A000CB018CA39DA3AEA3BFA36CA17DA18EA1D4
:1034B0009FA120E030E040E85FE30E9425048823DC
:1034C0002CF481E090E09BA38AA33FC06CA17DA176
:1034D0008EA19FA120E03FEF4FE757E40E94C50374
:1034E00018164CF568A579A58AA59BA520E030E0C3
:1034F00040E251E40E941F02DC01CB01BC01CD017E
:103500000E944900DC01CB019BA38AA30FC088EC79
:1035100090E099A388A388A199A10197F1F799A3B5
:1035200088A38AA19BA101979BA38AA38AA19BA19F
:10353000009769F724C06CA17DA18EA19FA10E9474
:103540004900DC01CB019BA38AA38AA19BA19F8F89
:103550008E8F8E8D9F8D0197F1F79F8F8E8F0FC06D
:103560006DA57EA58FA598A90E944900DC01CB011D
:103570008CA78CA58D8F8D8D8A95F1F78D8F1DAAC7
:1035800013C18DA9882F90E0FC01E05BFD4F808185
:103590009E01285C3F4FB9010E94FE1888AD882328
:1035A00009F0FFC080E090E0A8ECB2E4898F9A8F28
:1035B000AB8FBC8F698D7A8D8B8D9C8D20E030E038
:1035C0004AEF54E40E941F02DC01CB018D8B9E8BDD
:1035D000AF8BB88F6D897E898F89988D20E030E020
:1035E00040E85FE30E94250488232CF481E090E00A
:1035F0009C8B8B8B3FC06D897E898F89988D20E055
:103600003FEF4FE757E40E94C50318164CF5698D4C
:103610007A8D8B8D9C8D20E030E040E251E40E9459
:103620001F02DC01CB01BC01CD010E944900DC017D
:10363000CB019C8B8B8B0FC088EC90E09A8B898B95
:1036400089899A890197F1F79A8B898B8B899C8953
:1036500001979C8B8B8B8B899C89009769F714C091
:103660006D897E898F89988D0E944900DC01CB018C
:103670009C8B8B8B8B899C89988B8F878F85988966
:103680000197F1F7988B8F878DA9882F90E0FC0127
:10369000E05BFD4F80818823B9F38DA9282F30E0AE
:1036A0008EA9482F50E0C901880F991F820F931FE0
:1036B000840F951FFC01EC5BFD4F80818FAB80E098
:1036C00090E0A6E1B3E48B879C87AD87BE876B85CE
:1036D0007C858D859E8520E030E04AEF54E40E9491
:1036E0001F02DC01CB018F839887A987BA876F817E
:1036F000788589859A8520E030E040E85FE30E9484
:10370000250488232CF481E090E09E838D833FC0C4
:103710006F81788589859A8520E03FEF4FE757E4F0
:103720000E94C50318164CF56B857C858D859E859A
:1037300020E030E040E251E40E941F02DC01CB01B6
:10374000BC01CD010E944900DC01CB019E838D8329
:103750000FC088EC90E09C838B838B819C810197C8
:10376000F1F79C838B838D819E8101979E838D834E
:103770008D819E81009769F714C06F817885898556
:103780009A850E944900DC01CB019E838D838D8147
:103790009E819A83898389819A810197F1F79A831F
:1037A00089838DA98F5F8DAB8DA9833008F4E9CE15
:1037B0008EA9882F90E0FC01E35BFD4F808161E0E2
:1037C0000E9446188EA98F5F8EAB8EA9833008F4B5
:1037D0000ECE8FA9E8960FB6F894DEBF0FBECDBF10
:1037E000CF91DF910895DF93CF9300D000D00F9257
:1037F000CDB7DEB76A837B838C839D8319828A81F0
:103800009B81AC81BD81BC01CD010E944F0B89839E
:1038100089810F900F900F900F900F90CF91DF91B3
:103820000895DF93CF9300D0CDB7DEB78A83198296
:103830008A810E942A0C898389810F900F90CF91F1
:10384000DF910895DF93CF9300D00F92CDB7DEB70D
:103850009B838A8319828A819B810E94540C89836D
:1038600089810F900F900F90CF91DF910895DF9392
:10387000CF9300D0CDB7DEB79A83898389819A81AF
:103880000E947F0C0F900F90CF91DF910895DF93EE
:10389000CF93CDB7DEB780E690E00E947F0CCF914A
:1038A000DF910895DF93CF9300D00F92CDB7DEB7AD
:1038B0009A8389836B8389819A816B810E949B0C97
:1038C0000F900F900F90CF91DF910895DF93CF93DA
:1038D0000F92CDB7DEB781E0898380E00E94E30CD0
:1038E00085E00E94590D0E94A30D89810F90CF9110
:1038F000DF910895DF93CF9300D000D0CDB7DEB72E
:1039000069837A838B839C8389819A81AB81BC8113
:10391000BC01CD010E94E30D0E94B60D0E94AD0EC8
:103920000F900F900F900F90CF91DF910895DF933C
:10393000CF930F92CDB7DEB70E94CE0D89838981D8
:103940000F90CF91DF910895DF93CF9300D00F9226
:10395000CDB7DEB79B838A8381E089838A819B818F
:10396000009729F08A819B810E94D40E01C01982A0
:1039700089810F900F900F90CF91DF910895DF9381
:10398000CF930F92CDB7DEB781E089830E94FE0E00
:1039900083E00E94160F982F8981892389830E94D2
:1039A000460F89810F90CF91DF910895DF93CF93D8
:1039B00000D000D0CDB7DEB769837A838B839C8338
:1039C00089819A81AB81BC81BC01CD010E94850FA8
:1039D0000F900F900F900F90CF91DF910895DF938C
:1039E000CF93CDB7DEB70E945B0FCF91DF910895E3
:1039F000DF93CF93CDB7DEB70E946E0FCF91DF91EB
:103A00000895DF93CF9300D00F92CDB7DEB79B839D
:103A10008A8381E089838A819B81009729F08A814A
:103A20009B810E944F1001C0198289810F900F90D5
:103A30000F90CF91DF910895DF93CF9300D0CDB752
:103A4000DEB78A8381E089838CE061E00E94D01731
:103A50008DE061E00E94D0178EE060E00E94D017F8
:103A60008FE061E00E94D0178CE061E00E94461870
:103A70008A810E94DD10982F898189238983898119
:103A80000F900F90CF91DF910895DF93CF930F9216
:103A9000CDB7DEB781E089838CE060E00E94D0176B
:103AA0008DE060E00E94D0178EE061E00E94D017A8
:103AB0008FE060E00E94D0170E940612982F898143
:103AC0008923898389810F90CF91DF910895DF93B6
:103AD000CF930F92CDB7DEB78983809153028823AD
:103AE00021F48CE060E00E94461889810E94401217
:103AF0000F90CF91DF910895DF93CF9300D00F9275
:103B0000CDB7DEB79B838A8381E089838A819B81DD
:103B10000E945812982F89818923898389810F9067
:103B20000F900F90CF91DF910895DF93CF9300D046
:103B3000CDB7DEB79A83898389819A810097D9F0BE
:103B400012C080915302882321F48CE060E00E942F
:103B50004618E981FA8180810E94401289819A8108
:103B600001969A838983E981FA818081882349F7C4
:103B700080E00E9440120F900F90CF91DF91089546
:103B8000DF93CF93CDB7DEB728970FB6F894DEBF9B
:103B90000FBECDBF9F838E83688781E08D8319829E
:103BA0001A821B821C828E819F81009709F44DC06E
:103BB0008885882309F449C019821A821B821C82D5
:103BC0002DC029813A818E819F81820F931F0E948F
:103BD0005812982F8D8189238D8329813A818E8176
:103BE0009F81FC01E20FF31F8081882361F48885A7
:103BF000882F90E00196AA2797FDA095BA2F898378
:103C00009A83AB83BC8389819A81AB81BC81019605
:103C1000A11DB11D89839A83AB83BC838885282F1E
:103C200030E040E050E089819A81AB81BC8182170D
:103C30009307A407B50728F289819A812E813F81D5
:103C4000F901E80FF91F108201C01D828D812896AD
:103C50000FB6F894DEBF0FBECDBFCF91DF910895B0
:103C60000F931F93DF93CF93CDB7DEB7C555D040E9
:103C70000FB6F894DEBF0FBECDBFFE01EB5AFF4F6B
:103C8000108216C0FE01EB5AFF4F8081882F90E012
:103C9000FC01EC5AFD4F808161E00E94D017DE01EB
:103CA000AB5ABF4FFE01EB5AFF4F80818F5F8C9361
:103CB000FE01EB5AFF4F8081843020F381E061E008
:103CC0000E94D01782E061E00E94D01783E061E09B
:103CD0000E94D017FE01EF5AFF4F80E090E0A0E273
:103CE000B2E480839183A283B3838E01035B1F4F71
:103CF000FE01EF5AFF4F608171818281938120E044
:103D000030E04AEF54E40E941F02DC01CB01F801CD
:103D100080839183A283B383FE01E35BFF4F6081C5
:103D200071818281938120E030E040E85FE30E946E
:103D30002504882344F4FE01E55BFF4F81E090E019
:103D40009183808364C0FE01E35BFF4F60817181DA
:103D50008281938120E03FEF4FE757E40E94C50343
:103D600018160CF043C0FE01EF5AFF4F60817181BD
:103D70008281938120E030E040E251E40E941F0202
:103D8000DC01CB018E01055B1F4FBC01CD010E9400
:103D90004900DC01CB01F801918380831FC0FE0143
:103DA000E75BFF4F88EC90E091838083FE01E75B47
:103DB000FF4F808191810197F1F7FE01E75BFF4F93
:103DC00091838083DE01A55BBF4FFE01E55BFF4F62
:103DD00080819181019711969C938E93FE01E55B02
:103DE000FF4F808191810097D1F627C08E01055B3E
:103DF0001F4FFE01E35BFF4F6081718182819381E0
:103E00000E944900DC01CB01F80191838083DE012F
:103E1000A95BBF4FFE01E55BFF4F808191818D93D0
:103E20009C93FE01E95BFF4F808191810197F1F73F
:103E3000FE01E95BFF4F9183808382E00E94852130
:103E4000FE01ED5BFF4F80E090E0A0E8BFE38083E0
:103E50009183A283B3838E01015C1F4FFE01ED5B52
:103E6000FF4F608171818281938120E030E04AEFD1
:103E700054E40E941F02DC01CB01F801808391838E
:103E8000A283B383FE01FF96608171818281938159
:103E900020E030E040E85FE30E94250488232CF412
:103EA00081E090E09EAF8DAF46C0FE01FF9660813D
:103EB00071818281938120E03FEF4FE757E40E94B8
:103EC000C503181664F5FE01ED5BFF4F608171813B
:103ED0008281938120E030E040E251E40E941F02A1
:103EE000DC01CB01BC01CD010E944900DC01CB010A
:103EF0009EAF8DAF0FC088EC90E09CAF8BAF8BADC9
:103F00009CAD0197F1F79CAF8BAF8DAD9EAD019746
:103F10009EAF8DAF8DAD9EAD009769F716C0FE01C7
:103F2000FF9660817181828193810E944900DC014A
:103F3000CB019EAF8DAF8DAD9EAD9AAF89AF89ADF0
:103F40009AAD0197F1F79AAF89AF88E20E94852177
:103F500080E090E0A0E8BFE38DAB9EABAFABB8AF25
:103F60006DA97EA98FA998AD20E030E04AEF54E416
:103F70000E941F02DC01CB0189AB9AABABABBCAB9F
:103F800069A97AA98BA99CA920E030E040E85FE309
:103F90000E94250488232CF481E090E098AB8FA741
:103FA0003FC069A97AA98BA99CA920E03FEF4FE700
:103FB00057E40E94C50318164CF56DA97EA98FA978
:103FC00098AD20E030E040E251E40E941F02DC01A5
:103FD000CB01BC01CD010E944900DC01CB0198ABB3
:103FE0008FA70FC088EC90E09EA78DA78DA59EA5FA
:103FF0000197F1F79EA78DA78FA598A9019798AB78
:104000008FA78FA598A9009769F714C069A97AA905
:104010008BA99CA90E944900DC01CB0198AB8FA71A
:104020008FA598A99CA78BA78BA59CA50197F1F7B5
:104030009CA78BA781E00E94852180E090E0A0E80A
:10404000B0E48FA398A7A9A7BAA76FA178A589A55F
:104050009AA520E030E04AEF54E40E941F02DC0100
:10406000CB018BA39CA3ADA3BEA36BA17CA18DA10F
:104070009EA120E030E040E85FE30E942504882311
:104080002CF481E090E09AA389A33FC06BA17CA1AE
:104090008DA19EA120E03FEF4FE757E40E94C503AA
:1040A00018164CF56FA178A589A59AA520E030E0F7
:1040B00040E251E40E941F02DC01CB01BC01CD01B2
:1040C0000E944900DC01CB019AA389A30FC088ECB0
:1040D00090E098A38F8F8F8D98A10197F1F798A307
:1040E0008F8F89A19AA101979AA389A389A19AA1E7
:1040F000009769F714C06BA17CA18DA19EA10E94BD
:104100004900DC01CB019AA389A389A19AA19E8FC2
:104110008D8F8D8D9E8D0197F1F79E8F8D8F86E00F
:104120000E94852180E090E0A0E8BFE3898F9A8F0C
:10413000AB8FBC8F698D7A8D8B8D9C8D20E030E0AC
:104140004AEF54E40E941F02DC01CB018D8B9E8B51
:10415000AF8BB88F6D897E898F89988D20E030E094
:1041600040E85FE30E94250488232CF481E090E07E
:104170009C8B8B8B3FC06D897E898F89988D20E0C9
:104180003FEF4FE757E40E94C50318164CF5698DC1
:104190007A8D8B8D9C8D20E030E040E251E40E94CE
:1041A0001F02DC01CB01BC01CD010E944900DC01F2
:1041B000CB019C8B8B8B0FC088EC90E09A8B898B0A
:1041C00089899A890197F1F79A8B898B8B899C89C8
:1041D00001979C8B8B8B8B899C89009769F714C006
:1041E0006D897E898F89988D0E944900DC01CB0101
:1041F0009C8B8B8B8B899C89988B8F878F859889DB
:104200000197F1F7988B8F878EE00E94852180E0DF
:1042100090E0A0E8BFE38B879C87AD87BE876B8566
:104220007C858D859E8520E030E04AEF54E40E9435
:104230001F02DC01CB018F839887A987BA876F8122
:10424000788589859A8520E030E040E85FE30E9428
:10425000250488232CF481E090E09E838D833FC069
:104260006F81788589859A8520E03FEF4FE757E495
:104270000E94C50318164CF56B857C858D859E853F
:1042800020E030E040E251E40E941F02DC01CB015B
:10429000BC01CD010E944900DC01CB019E838D83CE
:1042A0000FC088EC90E09C838B838B819C8101976D
:1042B000F1F79C838B838D819E8101979E838D83F3
:1042C0008D819E81009769F714C06F8178858985FB
:1042D0009A850E944900DC01CB019E838D838D81EC
:1042E0009E819A83898389819A810197F1F79A83C4
:1042F0008983CB5ADF4F0FB6F894DEBF0FBECDBF18
:10430000CF91DF911F910F910895DF93CF93CDB798
:10431000DEB7C654D0400FB6F894DEBF0FBECDBF97
:10432000FE01EA5BFF4F808382E060E00E94461856
:1043300081E060E00E944618FE01EB5BFF4F1082B7
:10434000DE01AB5BBF4FFE01EA5BFF4F8081807FE8
:104350008C93DE01AB5BBF4FFE01EB5BFF4F8081B7
:1043600082958F708C93FE01EC5BFF4F10822CC006
:10437000FE01EC5BFF4F8081882F90E0FC01EC5A3E
:10438000FD4F4081FE01EB5BFF4F8081282F30E025
:10439000FE01EC5BFF4F8081882F90E0B90102C0E5
:1043A000759567958A95E2F7CB01982F9170842FC8
:1043B000692F0E944618DE01AC5BBF4FFE01EC5B2B
:1043C000FF4F80818F5F8C93FE01EC5BFF4F8081FC
:1043D000843070F283E061E00E944618FE01FF968F
:1043E00080E090E0A0E8BFE380839183A283B38361
:1043F000FE01FF96608171818281938120E030E02F
:104400004AEF54E40E941F02DC01CB018BAF9CAF4A
:10441000ADAFBEAF6BAD7CAD8DAD9EAD20E030E0FD
:1044200040E85FE30E94250488232CF481E090E0BB
:104430009AAF89AF41C06BAD7CAD8DAD9EAD20E034
:104440003FEF4FE757E40E94C50318165CF5FE01E5
:10445000FF96608171818281938120E030E040E2AB
:1044600051E40E941F02DC01CB01BC01CD010E947E
:104470004900DC01CB019AAF89AF0FC088EC90E016
:1044800098AF8FAB8FA998AD0197F1F798AF8FAB2D
:1044900089AD9AAD01979AAF89AF89AD9AAD009772
:1044A00069F714C06BAD7CAD8DAD9EAD0E94490027
:1044B000DC01CB019AAF89AF89AD9AAD9EAB8DABD4
:1044C0008DA99EA90197F1F79EAB8DAB83E060E0CB
:1044D0000E94461880E090E0A8E4B3E489AB9AAB70
:1044E000ABABBCAB69A97AA98BA99CA92BEA3AEA28
:1044F0004AE250E40E941F02DC01CB018DA79EA777
:10450000AFA7B8AB6DA57EA58FA598A920E030E038
:1045100040E85FE30E94250488231CF481E08CA717
:1045200091C06DA57EA58FA598A920E030E04FE74A
:1045300053E40E94C50318160CF07BC069A97AA940
:104540008BA99CA920E030E04AE754E40E941903BB
:10455000DC01CB0188A799A7AAA7BBA768A579A565
:104560008AA59BA520E030E04AEF54E40E941F0298
:10457000DC01CB018CA39DA3AEA3BFA36CA17DA145
:104580008EA19FA120E030E040E85FE30E94250477
:1045900088232CF481E090E09BA38AA33FC06CA108
:1045A0007DA18EA19FA120E03FEF4FE757E40E943D
:1045B000C50318164CF568A579A58AA59BA520E02A
:1045C00030E040E251E40E941F02DC01CB01BC015B
:1045D000CD010E944900DC01CB019BA38AA30FC03F
:1045E00088EC90E099A388A388A199A10197F1F79D
:1045F00099A388A38AA19BA101979BA38AA38AA1BF
:104600009BA1009769F724C06CA17DA18EA19FA1F9
:104610000E944900DC01CB019BA38AA38AA19BA134
:104620009F8F8E8F8E8D9F8D0197F1F79F8F8E8F2D
:104630000FC06DA57EA58FA598A90E944900DC0139
:10464000CB018CA78CA58D8F8D8D8A95F1F78D8FE1
:10465000DE01AB5BBF4FFE01EA5BFF4F80818F70D5
:104660008C93FE01ED5BFF4F10822CC0FE01ED5BD1
:10467000FF4F8081882F90E0FC01EC5AFD4F408174
:10468000FE01EB5BFF4F8081282F30E0FE01ED5BE8
:10469000FF4F8081882F90E0B90102C07595679522
:1046A0008A95E2F7CB01982F9170842F692F0E9491
:1046B0004618DE01AD5BBF4FFE01ED5BFF4F808111
:1046C0008F5F8C93FE01ED5BFF4F8081843070F231
:1046D00083E061E00E94461880E090E0A0E8BFE33C
:1046E000898F9A8FAB8FBC8F698D7A8D8B8D9C8DC6
:1046F00020E030E04AEF54E40E941F02DC01CB01CD
:104700008D8B9E8BAF8BB88F6D897E898F89988DAD
:1047100020E030E040E85FE30E94250488232CF489
:1047200081E090E09C8B8B8B3FC06D897E898F8967
:10473000988D20E03FEF4FE757E40E94C50318161D
:104740004CF5698D7A8D8B8D9C8D20E030E040E2B8
:1047500051E40E941F02DC01CB01BC01CD010E948B
:104760004900DC01CB019C8B8B8B0FC088EC90E067
:104770009A8B898B89899A890197F1F79A8B898B12
:104780008B899C8901979C8B8B8B8B899C8900974B
:1047900069F714C06D897E898F89988D0E944900C0
:1047A000DC01CB019C8B8B8B8B899C89988B8F87B1
:1047B0008F8598890197F1F7988B8F8783E060E068
:1047C0000E94461880E090E0A0E0B0E48B879C87D0
:1047D000AD87BE876B857C858D859E8520E030E02A
:1047E0004AEF54E40E941F02DC01CB018F839887BB
:1047F000A987BA876F81788589859A8520E030E01E
:1048000040E85FE30E94250488232CF481E090E0D7
:104810009E838D833FC06F81788589859A8520E04E
:104820003FEF4FE757E40E94C50318164CF56B8520
:104830007C858D859E8520E030E040E251E40E9439
:104840001F02DC01CB01BC01CD010E944900DC014B
:10485000CB019E838D830FC088EC90E09C838B837B
:104860008B819C810197F1F79C838B838D819E8145
:1048700001979E838D838D819E81009769F714C077
:104880006F81788589859A850E944900DC01CB017A
:104890009E838D838D819E819A83898389819A816C
:1048A0000197F1F79A838983CA5BDF4F0FB6F894BB
:1048B000DEBF0FBECDBFCF91DF910895DF93CF93C1
:1048C000CDB7DEB7C654D0400FB6F894DEBF0FBEEA
:1048D000CDBFFE01EA5BFF4F808382E060E00E9473
:1048E000461881E061E00E944618FE01EB5BFF4F35
:1048F0001082DE01AB5BBF4FFE01EA5BFF4F8081A0
:10490000807F8C93DE01AB5BBF4FFE01EB5BFF4F03
:10491000808182958F708C93FE01EC5BFF4F10823B
:104920002CC0FE01EC5BFF4F8081882F90E0FC01E2
:10493000EC5AFD4F4081FE01EB5BFF4F8081282F39
:1049400030E0FE01EC5BFF4F8081882F90E0B901E1
:1049500002C0759567958A95E2F7CB01982F917003
:10496000842F692F0E944618DE01AC5BBF4FFE0109
:10497000EC5BFF4F80818F5F8C93FE01EC5BFF4F00
:104980008081843070F283E061E00E944618FE016D
:10499000FF9680E090E0A0E8BFE380839183A2834C
:1049A000B383FE01FF96608171818281938120E053
:1049B00030E04AEF54E40E941F02DC01CB018BAFD0
:1049C0009CAFADAFBEAF6BAD7CAD8DAD9EAD20E00D
:1049D00030E040E85FE30E94250488232CF481E066
:1049E00090E09AAF89AF41C06BAD7CAD8DAD9EAD0F
:1049F00020E03FEF4FE757E40E94C50318165CF52F
:104A0000FE01FF96608171818281938120E030E018
:104A100040E251E40E941F02DC01CB01BC01CD0148
:104A20000E944900DC01CB019AAF89AF0FC088EC2E
:104A300090E098AF8FAB8FA998AD0197F1F798AF41
:104A40008FAB89AD9AAD01979AAF89AF89AD9AAD19
:104A5000009769F714C06BAD7CAD8DAD9EAD0E9423
:104A60004900DC01CB019AAF89AF89AD9AAD9EAB0D
:104A70008DAB8DA99EA90197F1F79EAB8DAB83E01D
:104A800060E00E94461880E090E0A8E4B3E489ABBF
:104A90009AABABABBCAB69A97AA98BA99CA92BEA51
:104AA0003AEA4AE250E40E941F02DC01CB018DA7E2
:104AB0009EA7AFA7B8AB6DA57EA58FA598A920E04E
:104AC00030E040E85FE30E94250488231CF481E085
:104AD0008CA791C06DA57EA58FA598A920E030E098
:104AE0004FE753E40E94C50318160CF07BC069A978
:104AF0007AA98BA99CA920E030E04AE754E40E94FF
:104B00001903DC01CB0188A799A7AAA7BBA768A5B1
:104B100079A58AA59BA520E030E04AEF54E40E94E5
:104B20001F02DC01CB018CA39DA3AEA3BFA36CA18C
:104B30007DA18EA19FA120E030E040E85FE30E94CC
:104B4000250488232CF481E090E09BA38AA33FC036
:104B50006CA17DA18EA19FA120E03FEF4FE757E41C
:104B60000E94C50318164CF568A579A58AA59BA5D2
:104B700020E030E040E251E40E941F02DC01CB0162
:104B8000BC01CD010E944900DC01CB019BA38AA39B
:104B90000FC088EC90E099A388A388A199A1019700
:104BA000F1F799A388A38AA19BA101979BA38AA34C
:104BB0008AA19BA1009769F724C06CA17DA18EA159
:104BC0009FA10E944900DC01CB019BA38AA38AA17B
:104BD0009BA19F8F8E8F8E8D9F8D0197F1F79F8F59
:104BE0008E8F0FC06DA57EA58FA598A90E94490044
:104BF000DC01CB018CA78CA58D8F8D8D8A95F1F76B
:104C00008D8FDE01AB5BBF4FFE01EA5BFF4F808102
:104C10008F708C93FE01ED5BFF4F10822CC0FE0164
:104C2000ED5BFF4F8081882F90E0FC01EC5AFD4F37
:104C30004081FE01EB5BFF4F8081282F30E0FE01B9
:104C4000ED5BFF4F8081882F90E0B90102C0759520
:104C500067958A95E2F7CB01982F9170842F692F81
:104C60000E944618DE01AD5BBF4FFE01ED5BFF4FBA
:104C700080818F5F8C93FE01ED5BFF4F80818430DC
:104C800070F283E061E00E94461880E090E0A0E8C6
:104C9000BFE3898F9A8FAB8FBC8F698D7A8D8B8D97
:104CA0009C8D20E030E04AEF54E40E941F02DC01BA
:104CB000CB018D8B9E8BAF8BB88F6D897E898F8951
:104CC000988D20E030E040E85FE30E9425048823CF
:104CD0002CF481E090E09C8B8B8B3FC06D897E89AA
:104CE0008F89988D20E03FEF4FE757E40E94C5037E
:104CF00018164CF5698D7A8D8B8D9C8D20E030E0F7
:104D000040E251E40E941F02DC01CB01BC01CD0155
:104D10000E944900DC01CB019C8B8B8B0FC088EC7F
:104D200090E09A8B898B89899A890197F1F79A8B00
:104D3000898B8B899C8901979C8B8B8B8B899C8918
:104D4000009769F714C06D897E898F89988D0E94BC
:104D50004900DC01CB019C8B8B8B8B899C89988BC8
:104D60008F878F8598890197F1F7988B8F8783E0DC
:104D700060E00E94461880E090E0A0E0B0E48B87FD
:104D80009C87AD87BE876B857C858D859E8520E061
:104D900030E04AEF54E40E941F02DC01CB018F8314
:104DA0009887A987BA876F81788589859A8520E059
:104DB00030E040E85FE30E94250488232CF481E082
:104DC00090E09E838D833FC06F81788589859A8529
:104DD00020E03FEF4FE757E40E94C50318164CF55B
:104DE0006B857C858D859E8520E030E040E251E436
:104DF0000E941F02DC01CB01BC01CD010E944900D1
:104E0000DC01CB019E838D830FC088EC90E09C83F6
:104E10008B838B819C810197F1F79C838B838D81A0
:104E20009E8101979E838D838D819E81009769F776
:104E300014C06F81788589859A850E944900DC01BC
:104E4000CB019E838D838D819E819A838983898105
:104E50009A810197F1F79A838983CA5BDF4F0FB676
:104E6000F894DEBF0FBECDBFCF91DF910895DF93E1
:104E7000CF93CDB7DEB76C970FB6F894DEBF0FBEF9
:104E8000CDBF81E00E94852180E090E0A0E8B0E401
:104E9000898F9A8FAB8FBC8F698D7A8D8B8D9C8D0E
:104EA00020E030E04AEF54E40E941F02DC01CB0115
:104EB0008D8B9E8BAF8BB88F6D897E898F89988DF6
:104EC00020E030E040E85FE30E94250488232CF4D2
:104ED00081E090E09C8B8B8B3FC06D897E898F89B0
:104EE000988D20E03FEF4FE757E40E94C503181666
:104EF0004CF5698D7A8D8B8D9C8D20E030E040E201
:104F000051E40E941F02DC01CB01BC01CD010E94D3
:104F10004900DC01CB019C8B8B8B0FC088EC90E0AF
:104F20009A8B898B89899A890197F1F79A8B898B5A
:104F30008B899C8901979C8B8B8B8B899C89009793
:104F400069F714C06D897E898F89988D0E94490008
:104F5000DC01CB019C8B8B8B8B899C89988B8F87F9
:104F60008F8598890197F1F7988B8F8782E00E944F
:104F7000852180E090E0A0E8B0E48B879C87AD8736
:104F8000BE876B857C858D859E8520E030E04AEF6D
:104F900054E40E941F02DC01CB018F839887A9870C
:104FA000BA876F81788589859A8520E030E040E86E
:104FB0005FE30E94250488232CF481E090E09E8327
:104FC0008D833FC06F81788589859A8520E03FEF8A
:104FD0004FE757E40E94C50318164CF56B857C8596
:104FE0008D859E8520E030E040E251E40E941F0262
:104FF000DC01CB01BC01CD010E944900DC01CB01E9
:105000009E838D830FC088EC90E09C838B838B8183
:105010009C810197F1F79C838B838D819E81019701
:105020009E838D838D819E81009769F714C06F8167
:10503000788589859A850E944900DC01CB019E8391
:105040008D838D819E819A83898389819A8101973D
:10505000F1F79A8389836C960FB6F894DEBF0FBE82
:10506000CDBFCF91DF910895DF93CF93CDB7DEB75A
:105070002E970FB6F894DEBF0FBECDBF88E10E9419
:10508000852180E090E0A0E8BFE38B879C87AD8717
:10509000BE876B857C858D859E8520E030E04AEF5C
:1050A00054E40E941F02DC01CB018F839887A987FB
:1050B000BA876F81788589859A8520E030E040E85D
:1050C0005FE30E94250488232CF481E090E09E8316
:1050D0008D833FC06F81788589859A8520E03FEF79
:1050E0004FE757E40E94C50318164CF56B857C8585
:1050F0008D859E8520E030E040E251E40E941F0251
:10510000DC01CB01BC01CD010E944900DC01CB01D7
:105110009E838D830FC088EC90E09C838B838B8172
:105120009C810197F1F79C838B838D819E810197F0
:105130009E838D838D819E81009769F714C06F8156
:10514000788589859A850E944900DC01CB019E8380
:105150008D838D819E819A83898389819A8101972C
:10516000F1F79A8389832E960FB6F894DEBF0FBEAF
:10517000CDBFCF91DF910895DF93CF9300D0CDB70E
:10518000DEB789836A838981882349F48A818031E3
:1051900030F48A818F7080680E9485210BC08981DC
:1051A000813041F48A81803128F48A818F70806C4B
:1051B0000E9485210F900F90CF91DF910895DF938A
:1051C000CF9300D000D00F92CDB7DEB79D838C83F4
:1051D0001B821A822C813D818A819B81F901E80F13
:1051E000F91F8081898311C089810E945E248A8190
:1051F0009B8101969B838A832C813D818A819B813F
:10520000F901E80FF91F808189838981882361F77B
:105210000F900F900F900F900F90CF91DF91089506
:10522000DF93CF93CDB7DEB768970FB6F894DEBFA4
:105230000FBECDBF6D8B7E8B8F8B988F8DB79EB73A
:1052400008970FB6F8949EBF0FBE8DBFEDB7FEB79F
:105250003196CE0101969183808388E690E0938316
:1052600082838D899E89AF89B88D84839583A68337
:10527000B7830E9442308DB79EB708960FB6F89458
:105280009EBF0FBE8DBFCE0101960E94DF2868969B
:105290000FB6F894DEBF0FBECDBFCF91DF9108955A
:1052A000DF93CF930F92CDB7DEB7898384E00E945E
:1052B000852189810E945E240F90CF91DF9108950E
:1052C000DF93CF93CDB7DEB780E10E94852180E2E6
:1052D0000E945E2480E10E948521CF91DF91089594
:1052E000DF93CF93CDB7DEB784E10E94852180E2C2
:1052F0000E945E2484E10E948521CF91DF91089570
:10530000DF93CF93CDB7DEB762970FB6F894DEBFC9
:105310000FBECDBF998B888B6A8B8A89883008F045
:1053200091C08A89882F90E00896880F991F880F6E
:10533000991F880F991F0E94852180E090E0A0E8C6
:10534000BFE38B879C87AD87BE876B857C858D850A
:105350009E8520E030E04AEF54E40E941F02DC0109
:10536000CB018F839887A987BA876F8178858985D4
:105370009A8520E030E040E85FE30E94250488231E
:105380002CF481E090E09E838D833FC06F8178850F
:1053900089859A8520E03FEF4FE757E40E94C503D7
:1053A00018164CF56B857C858D859E8520E030E058
:1053B00040E251E40E941F02DC01CB01BC01CD019F
:1053C0000E944900DC01CB019E838D830FC088ECD5
:1053D00090E09C838B838B819C810197F1F79C8368
:1053E0008B838D819E8101979E838D838D819E818C
:1053F000009769F714C06F81788589859A850E9426
:105400004900DC01CB019E838D838D819E819A832F
:10541000898389819A810197F1F79A8389831F860D
:105420000EC08F85282F30E088899989FC01E20F12
:10543000F31F80810E945E248F858F5F8F878F8509
:10544000883078F362960FB6F894DEBF0FBECDBFFA
:10545000CF91DF910895DF93CF9300D00F92CDB716
:10546000DEB78A836B8381E089838A81882329F46C
:105470008AE161E00E94461807C08A81813021F4E8
:105480008BE161E00E9446188A816B810E9423159E
:1054900089810F900F900F90CF91DF910895DF9346
:1054A000CF9300D00F92CDB7DEB79B838A8381E084
:1054B00089838A819B81009729F08A819B810E9440
:1054C000551601C0198289810F900F900F90CF91CE
:1054D000DF910895DF93CF9300D00F92CDB7DEB761
:1054E0009B838A8381E089838A819B81009729F04D
:1054F0008A819B810E94671601C0198289810F9061
:105500000F900F90CF91DF910895DF93CF9300D04C
:105510000F92CDB7DEB79B838A8381E089838A812E
:105520009B81009729F08A819B810E94791601C096
:10553000198289810F900F900F90CF91DF9108957C
:10554000DF93CF93CDB7DEB70E945813CF91DF9191
:105550000895DF93CF9300D000D00F92CDB7DEB780
:105560009C838B836D838B819C81892F992783708A
:1055700080658A830E948E138A810E94C2138B8168
:105580000E940A148D810E940A140E9448140F90F0
:105590000F900F900F900F90CF91DF910895DF93B0
:1055A000CF9300D000D00F92CDB7DEB79D838C8310
:1055B0008C819D81892F9927837080658B830E94C0
:1055C0008E138B810E94C2138C810E940A140E9448
:1055D000A8138B810E94EB130E94351489830E94CB
:1055E000481489810F900F900F900F900F90CF91DA
:1055F000DF910895DF93CF93CDB7DEB727970FB62E
:10560000F894DEBF0FBECDBF9D838C837F836E83F6
:10561000198203C089818F5F89838981282F30E0B7
:105620008E819F81FC01E20FF31F8081882391F717
:105630008C819D81892F9927837080658B838C81D4
:105640008A830E948E138B810E94C2138A810E94DA
:105650000A140AC0EE81FF8180810E940A148E81A3
:105660009F8101969F838E83EE81FF8180818823B5
:1056700089F70E94481427960FB6F894DEBF0FBE34
:10568000CDBFCF91DF9108950F931F93DF93CF93F9
:10569000CDB7DEB727970FB6F894DEBF0FBECDBFEC
:1056A0009D838C837F836E831A828C819D810E946F
:1056B000CF2A8B83198219C08A81282F30E08E81EE
:1056C0009F818C01020F131F8C819D8101969D8308
:1056D0008C838C819D810E94CF2AF80180838A81EE
:1056E0008F5F8A8389818F5F898399818B819817E6
:1056F00018F38A81282F30E08E819F81FC01E20F10
:10570000F31F108227960FB6F894DEBF0FBECDBFF1
:10571000CF91DF911F910F910895DF93CF9300D028
:10572000CDB7DEB78A8381E089838A81803248F4ED
:105730008A8160E00E94D0178A8161E00E94461849
:1057400002C081E0898389810F900F90CF91DF9112
:105750000895DF93CF9300D0CDB7DEB78A8381E081
:1057600089838A81803228F48A8161E00E94461808
:1057700002C081E0898389810F900F90CF91DF91E2
:105780000895DF93CF9300D000D0CDB7DEB78A83E2
:105790007C836B8381E089838A81803258F48B819A
:1057A0009C81009739F02B813C818A81B9010E944C
:1057B000FE1802C081E0898389810F900F900F90BD
:1057C0000F90CF91DF910895DF93CF93CDB7DEB7E0
:1057D00081E08093F203CF91DF910895DF93CF931F
:1057E000CDB7DEB70E94661C0E94BF1C0E94451DFB
:1057F0000E94301E0E94981980E062E00E942B2ACD
:1058000084EE9BE20E944F2A82E063E00E942B2AF2
:1058100080E39FE20E94852ACF91DF910895DF9374
:10582000CF93CDB7DEB7CF54D0400FB6F894DEBFDC
:105830000FBECDBF8AE089871D821E821F82188617
:105840001C821B828FE08A83AFE5B0E0EFE5F0E0D9
:10585000808180688C9364E670E080E090E00E9434
:10586000D61C80E060E00E94BC288CE690E00E949C
:10587000DF2864EF71E080E090E00E947A1C0E94D3
:10588000372780E060E00E94BC288BE790E00E9410
:10589000DF288091F203813009F0CCC21092F2032C
:1058A00064EF71E080E090E00E947A1C0E9437274C
:1058B0008091E603813009F0BDC21092E603CE016B
:1058C0000A9629E334E0B9010E943B30CE01CC9620
:1058D0002BE634E0B9010E943B30198221C0898156
:1058E000282F30E08BE490E0AC01249FC001259F7D
:1058F000900D349F900D1124885A9D4F9E01265F74
:105900003F4FB9010E943230009739F4898180936A
:10591000F70381E08093F50306C089818F5F898357
:1059200089818530E0F28091F503813009F074C2FD
:1059300080E060E00E94BC2889E890E00E94DF28B7
:10594000BAC081E067E00E94BC2882E990E00E9432
:10595000DF2855C08091F403882329F40E94EA19B6
:105960008093F3030EC08091F403803321F0809183
:10597000F403833231F48091F4038093F3031092A3
:10598000F4038091F3038823D1F18091F3038033F2
:10599000B0F18091F3038A3390F58D819E81AF81C0
:1059A000B8852AE030E040E050E0BC01CD010E9423
:1059B000932F9B01AC018091F303882F90E0C09757
:1059C000AA2797FDA095BA2F820F931FA41FB51F7A
:1059D0008D839E83AF83B88781E069850E94BC2850
:1059E0008AE20E945E248985815089878985853075
:1059F00031F41D821E821F8218868AE08987809179
:105A0000F303833209F0A6CF8DB79EB708970FB680
:105A1000F8949EBF0FBE8DBFEDB7FEB73196CE0195
:105A20008A5B9F4F9183808387E990E09383828391
:105A30008D819E81AF81B88584839583A683B7834A
:105A40000E944230EDB7FEB738960FB6F894FEBF0D
:105A50000FBEEDBFCE018A5B9F4F9E01245C3F4F7E
:105A6000B9010E943230009729F481E08B8384E0F1
:105A70008C8321C0CE018A5B9F4F9E01245C3F4FE7
:105A8000B9010E9432300097B1F00E94372780E0C0
:105A900062E00E94BC288BE990E00E94DF281B8214
:105AA0008C818F5F8C831D821E821F8218868AE004
:105AB00089871092F3038C81833008F442CF8B8165
:105AC0008823F1F40E94372780E067E00E94BC2819
:105AD00085EA90E00E94DF288091F703282F30E0CC
